:020000040800F2
:1000000000500020910800080108000807080008B7
:100010000D08000813080008190800080000000077
:100020000000000000000000000000001F080008A1
:100030002B080008000000003708000843080008EB
:10004000D9080008D9080008D9080008D90800080C
:10005000D90800084F080008D9080008D908000886
:10006000D9080008D9080008D9080008D9080008EC
:10007000D9080008D9080008D9080008D9080008DC
:10008000D9080008D9080008D9080008D9080008CC
:10009000D9080008D9080008D9080008D9080008BC
:1000A000D9080008D9080008D9080008D9080008AC
:1000B0005D080008D9080008D9080008D908000818
:1000C000D9080008D9080008D908000871080008F4
:1000D000D9080008D9080008D9080008D90800087C
:1000E000D9080008D9080008D90800080000000055
:1000F0000000000000000000000000000000000000
:0C01000000000000000000005FF808F1A3
:10010C0010B5054C237833B9044B13B10448AFF345
:10011C0000800123237010BD0C00002000000000A3
:10012C00B826000808B5034B1BB103490348AFF3CD
:10013C00008008BD0000000010000020B826000858
:10014C0080B582B000AF0346FB71002201210B4841
:10015C0000F04EFF00221021094800F049FFF91D64
:10016C000A230122074801F0D5FB01221021044883
:10017C0000F03EFF00BF0837BD4680BD000C0140BB
:10018C00000801402800002080B582B000AF7860E4
:10019C000B467B80012201210B4800F029FF002235
:1001AC0010210A4800F024FF7A88642379680848F3
:1001BC0001F0B0FB01221021044800F019FF00BF30
:1001CC000837BD4680BD00BF000C0140000801404F
:1001DC002800002080B582B000AF642000F0DAFB6C
:1001EC001120FFF7ADFF782000F0D4FB3620FFF78D
:1001FC00A7FF4823FB71FB1D01211846FFF7C4FF25
:10020C003A20FFF79DFF0523FB71FB1D01211846CA
:10021C00FFF7BAFF2920FFF793FF00BF0837BD4651
:10022C0080BD90B585B000AF0446084611461A460D
:10023C002346FB800346BB800B467B8013463B80EA
:10024C002A20FFF77DFFFB881B0A9BB2DBB23B73B6
:10025C00FB88DBB27B737B881B0A9BB2DBB2BB7364
:10026C007B88DBB2FB7307F10C0304211846FFF704
:10027C008BFF2B20FFF764FFBB881B0A9BB2DBB202
:10028C003B73BB88DBB27B733B881B0A9BB2DBB234
:10029C00BB733B88DBB2FB7307F10C0304211846DC
:1002AC00FFF772FF2C20FFF74BFF00BF1437BD4642
:1002BC0090BD000080B5FEB000AF0246BB1D1A8099
:1002CC00BB1D1B881B0A9BB2DBB287F8EC31BB1D34
:1002DC001B88DBB287F8ED31EF23EF2200210020E1
:1002EC00FFF79FFF01220121224800F081FE00222E
:1002FC001021214800F07CFE0023C7F8F43115E0F2
:10030C00D7F8F4315B0097F8EC1107F10C02D154DB
:10031C00D7F8F4315B00013397F8ED1107F10C02BB
:10032C00D154D7F8F4310133C7F8F431D7F8F4319C
:10033C00EF2BE5DD0023C7F8F0310CE007F10C01E1
:10034C0064234FF4F0720D4801F0E4FAD7F8F03161
:10035C000133C7F8F031D7F8F031EF2BEEDD012285
:10036C001021054800F044FE00BF07F5FC77BD46A0
:10037C0080BD00BF000C0140000801402800002097
:10038C0080B500AF00F0A4FA00F03EF800F0F8F8E9
:10039C0000F0AAF800F072F800220221184800F0D0
:1003AC0027FE322000F0F6FA01220221144800F058
:1003BC001FFE322000F0EEFA01221021114800F04D
:1003CC0017FE012201210E4800F012FEFFF702FF7A
:1003DC004FF47840FFF76EFF00221021094800F01F
:1003EC0007FE4FF4FA7000F0D5FA012210210548EF
:1003FC0000F0FEFD4FF4FA7000F0CCFAECE700BF11
:10040C00000C01400008014080B590B000AF07F12E
:10041C00180328220021184602F040F93B1D002247
:10042C001A605A609A60DA601A610123BB614FF45A
:10043C008033FB6100237B6307F11803184600F03F
:10044C0009FE0346002B01D000F01EF90F237B6040
:10045C000123BB600023FB6000233B6100237B6115
:10046C003B1D0021184601F075F80346002B01D006
:10047C0000F00AF900BF4037BD4680BD80B500AF23
:10048C00174B184A1A60164B4FF482725A60144B71
:10049C0000229A60124B0022DA60114B00221A6182
:1004AC000F4B00225A610E4B4FF400729A610C4BA9
:1004BC001822DA610A4B00221A62094B00225A6296
:1004CC00074B00229A62064B0A22DA62044801F0BA
:1004DC009DF90346002B01D000F0D6F800BF80BD7B
:1004EC00280000200030014080B586B000AF07F135
:1004FC00080300221A605A609A60DA603B460022B8
:10050C001A605A601D4B4FF080421A601B4B40F230
:10051C003F625A60194B00229A60184B1322DA6022
:10052C00164B00221A61154B80229A61134801F078
:10053C00F2FC0346002B01D000F0A6F84FF48053D8
:10054C00BB6007F1080319460C4801F023FE034673
:10055C00002B01D000F098F800233B6000237B6057
:10056C003B461946054802F005F80346002B01D01E
:10057C0000F08AF800BF1837BD4680BD800000200F
:10058C0080B588B000AF07F1100300221A605A60E2
:10059C009A60DA602F4B9B692E4A43F020039361DB
:1005AC002C4B9B6903F02003FB60FB68294B9B6978
:1005BC00284A43F004039361264B9B6903F0040320
:1005CC00BB60BB68234B9B69224A43F008039361D1
:1005DC00204B9B6903F008037B607B6800220A2197
:1005EC001D4800F005FD012210211B4800F000FD04
:1005FC0001220321194800F0FBFC1A233B61012363
:10060C007B610023BB610323FB6107F110031946D7
:10061C00114800F069FB04233B6100237B6101233B
:10062C00BB6107F1100319460B4800F05DFB032377
:10063C003B6101237B610023BB610323FB6107F159
:10064C0010031946054800F04FFB00BF2037BD468C
:10065C0080BD00BF0010024000080140000C0140AA
:10066C0080B582B000AF78607B681B68B3F1804FB7
:10067C0003D10821034800F0D3FC00BF0837BD4666
:10068C0080BD00BF0008014080B400AF72B600BF4F
:10069C00FEE7000080B584B000AF194B9B69184A87
:1006AC0043F001039361164B9B6903F00103BB609C
:1006BC00BB68134BDB69124A43F08053D361104B78
:1006CC00DB6903F080537B607B68002200210520EE
:1006DC0000F05BFA052000F074FA0A4B5B68FB60D3
:1006EC00FB6823F0E063FB60FB6843F00073FB6086
:1006FC00044AFB68536000BF1037BD4680BD00BF85
:10070C00001002400000014080B588B000AF786056
:10071C0007F1100300221A605A609A60DA607B6855
:10072C001B681F4A934237D11E4B9B691D4A43F4E9
:10073C00805393611B4B9B6903F48053FB60FB68F4
:10074C00184B9B69174A43F004039361154B9B6943
:10075C0003F00403BB60BB68A0233B6102237B61F5
:10076C000323FB6107F1100319460F4800F0BCFA94
:10077C0040233B6100237B610023BB6107F1100325
:10078C001946094800F0B0FA00220021232000F09D
:10079C00FCF9232000F015FA00BF2037BD4680BDC0
:1007AC0000300140001002400008014080B584B0C8
:1007BC0000AF78607B681B68B3F1804F13D10C4B92
:1007CC00DB690B4A43F00103D361094BDB6903F08E
:1007DC000103FB60FB68002200211C2000F0D5F90E
:1007EC001C2000F0EEF900BF1037BD4680BD00BFE5
:1007FC000010024080B400AFFEE780B400AFFEE70B
:10080C0080B400AFFEE780B400AFFEE780B400AF69
:10081C00FEE780B400AF00BFBD4680BC704780B41B
:10082C0000AF00BFBD4680BC704780B400AF00BFB6
:10083C00BD4680BC704780B500AF00F08FF800BF9C
:10084C0080BD80B400AF00BFBD4680BC70470000C7
:10085C0080B500AF024801F0ADFB00BF80BD00BF0A
:10086C008000002080B500AF024801F097F900BF6E
:10087C0080BD00BF2800002080B400AF00BFBD4683
:10088C0080BC7047FFF7F8FF0B480C490C4A00235B
:10089C0002E0D458C4500433C4188C42F9D3094A2A
:1008AC00094C002301E013600432A242FBD301F097
:1008BC00D1FEFFF765FD7047000000200C00002002
:1008CC00FC2600080C000020CC000020FEE70000F5
:1008DC0080B500AF084B1B68074A43F01003136048
:1008EC00032000F047F9002000F008F8FFF7D2FED3
:1008FC000023184680BD00BF0020024080B582B0A6
:10090C0000AF7860124B1A68124B1B7819464FF4E3
:10091C007A73B3FBF1F3B2FBF3F3184600F05FF913
:10092C000346002B01D001230EE07B680F2B0AD865
:10093C00002279684FF0FF3000F027F9064A7B68F7
:10094C001360002300E0012318460837BD4680BD24
:10095C0000000020080000200400002080B400AF3C
:10096C00054B1B781A46054B1B681344034A13604E
:10097C0000BFBD4680BC704708000020C8000020A6
:10098C0080B400AF024B1B681846BD4680BC704754
:10099C00C800002080B584B000AF7860FFF7F0FF8E
:1009AC00B8607B68FB60FB68B3F1FF3F05D00A4B76
:1009BC001B781A46FB681344FB6000BFFFF7E0FF8F
:1009CC000246BB68D31AFA689A42F7D800BF00BF38
:1009DC001037BD4680BD00BF0800002080B485B034
:1009EC0000AF78607B6803F00703FB600C4BDB689F
:1009FC00BB60BA684FF6FF031340BB60FB681A027A
:100A0C00BB68134343F0BF6343F40033BB60044A39
:100A1C00BB68D36000BF1437BD4680BC704700BFB5
:100A2C0000ED00E080B400AF044BDB681B0A03F060
:100A3C0007031846BD4680BC704700BF00ED00E0C0
:100A4C0080B483B000AF0346FB7197F90730002BDD
:100A5C000BDBFB7903F01F02064997F907305B09A2
:100A6C00012000FA02F241F8232000BF0C37BD46EA
:100A7C0080BC704700E100E080B483B000AF034657
:100A8C003960FB7197F90730002B0ADB3B68DAB24F
:100A9C000C4997F907301201D2B20B4483F80023AA
:100AAC000AE03B68DAB20849FB7903F00F03043B18
:100ABC001201D2B20B441A7600BF0C37BD4680BC73
:100ACC00704700BF00E100E000ED00E080B489B0A9
:100ADC0000AFF860B9607A60FB6803F00703FB6154
:100AEC00FB69C3F10703042B28BF0423BB61FB691B
:100AFC000433062B02D9FB69033B00E000237B6126
:100B0C004FF0FF32BB6902FA03F3DA43BB681A40B9
:100B1C007B699A404FF0FF317B6901FA03F3D943AB
:100B2C007B680B40134318462437BD4680BC704786
:100B3C0080B582B000AF78607B68013BB3F1807FF9
:100B4C0001D301230FE00A4A7B68013B53600F215C
:100B5C004FF0FF30FFF790FF054B00229A60044BDB
:100B6C0007221A60002318460837BD4680BD00BF17
:100B7C0010E000E080B582B000AF78607868FFF7D5
:100B8C002DFF00BF0837BD4680BD80B586B000AFD5
:100B9C000346B9607A60FB7300237B61FFF742FF69
:100BAC0078617A68B9687869FFF790FF024697F91F
:100BBC000F3011461846FFF75FFF00BF1837BD46D0
:100BCC0080BD80B582B000AF0346FB7197F907304A
:100BDC001846FFF735FF00BF0837BD4680BD80B50E
:100BEC0082B000AF78607868FFF7A2FF0346184622
:100BFC000837BD4680BD000080B584B000AF78607A
:100C0C000023FB737B6893F82130DBB2022B05D0F9
:100C1C007B6804229A630123FB7351E07B681B6899
:100C2C001A687B681B6822F00E021A607B681B68CE
:100C3C001A687B681B6822F001021A607B681B68CB
:100C4C00224A934229D07B681B68214A934222D0C6
:100C5C007B681B681F4A93421AD07B681B681E4A2C
:100C6C00934212D07B681B681C4A93420AD07B6863
:100C7C001B681B4A934202D14FF480130EE04FF0D5
:100C8C0080730BE04FF4803308E04FF4805305E0A1
:100C9C004FF4807302E0102300E00123114A5360EB
:100CAC007B68012283F821207B68002283F82020B6
:100CBC007B685B6B002B03D07B685B6B7868984719
:100CCC00FB7B18461037BD4680BD00BF08000240B4
:100CDC001C00024030000240440002405800024018
:100CEC006C0002400000024080B48BB000AF786012
:100CFC00396000237B6200233B6269E101227B6A3D
:100D0C0002FA03F3FB613B681B68FA691340BB6191
:100D1C00BA69FB699A4240F058813B685B689A4A11
:100D2C0093425ED0984A934275D8984A934258D0D1
:100D3C00964A93426FD8964A934252D0944A934221
:100D4C0069D8944A93424CD0924A934263D8924ABF
:100D5C00934246D0904A93425DD8122B2AD8122B3C
:100D6C0059D801A252F823F0EF0D0008C90D000864
:100D7C00DB0D00081D0E0008230E0008230E0008D2
:100D8C00230E0008230E0008230E0008230E000873
:100D9C00230E0008230E0008230E0008230E000863
:100DAC00230E0008230E0008230E0008D10D0008A6
:100DBC00E50D0008794A934213D02CE03B68DB68C0
:100DCC003B6229E03B68DB6804333B6224E03B6810
:100DDC00DB6808333B621FE03B68DB680C333B622B
:100DEC001AE03B689B68002B02D104233B6213E0A2
:100DFC003B689B68012B05D108233B627B68FA6931
:100E0C001A6109E008233B627B68FA695A6103E0C6
:100E1C0000233B6200E000BFBB69FF2B01D87B685D
:100E2C0001E07B6804337B61BB69FF2B02D87B6AD2
:100E3C009B0002E07B6A083B9B003B617B691A6864
:100E4C000F213B6901FA03F3DB431A40396A3B6912
:100E5C0001FA03F31A437B691A603B685B6803F081
:100E6C008053002B00F0B1804D4B9B694C4A43F0F2
:100E7C00010393614A4B9B6903F00103BB60BB68A0
:100E8C00484A7B6A9B08023352F82330FB607B6A2A
:100E9C0003F003039B000F2202FA03F3DB43FA680F
:100EAC001340FB607B68404A934213D07B683F4AF7
:100EBC0093420DD07B683E4A934207D07B683D4AF3
:100ECC00934201D1032306E0042304E0022302E051
:100EDC00012300E000237A6A02F00302920093409F
:100EEC00FA681343FB602F497B6A9B080233FA684C
:100EFC0041F823203B685B6803F48013002B06D079
:100F0C002D4B9A682C49BB6913438B6006E02A4B26
:100F1C009A68BB69DB43284913408B603B685B686C
:100F2C0003F40013002B06D0234BDA682249BB696B
:100F3C001343CB6006E0204BDA68BB69DB431E49E8
:100F4C001340CB603B685B6803F40033002B06D086
:100F5C00194B5A681849BB6913434B6006E0164B92
:100F6C005A68BB69DB43144913404B603B685B68B0
:100F7C0003F48033002B21D00F4B1A680E49BB6948
:100F8C0013430B6021E000BF000032100000311051
:100F9C00000022100000211000001210000011109F
:100FAC00001002400000014000080140000C01400C
:100FBC000010014000140140000401400B4B1A6862
:100FCC00BB69DB43094913400B607B6A01337B62CD
:100FDC003B681A687B6A22FA03F3002B7FF48EAE0F
:100FEC0000BF00BF2C37BD4680BC704700040140D9
:100FFC0080B483B000AF78600B467B8013467B7067
:10100C007B78002B03D07A887B681A6103E07B889D
:10101C001A047B681A6100BF0C37BD4680BC704750
:10102C0080B485B000AF78600B467B807B68DB6852
:10103C00FB607A88FB6813401A04FB68D9437B88F1
:10104C000B401A437B681A6100BF1437BD4680BC45
:10105C007047000080B586B000AF78607B68002BCD
:10106C0001D101236CE27B681B6803F00103002BA8
:10107C0000F08780924B5B6803F00C03042B0CD0C0
:10108C008F4B5B6803F00C03082B12D18C4B5B6805
:10109C0003F48033B3F5803F0BD1894B1B6803F409
:1010AC000033002B6CD07B685B68002B68D101236C
:1010BC0046E27B685B68B3F5803F06D1804B1B68CA
:1010CC007F4A43F4803313602EE07B685B68002B0F
:1010DC000CD17B4B1B687A4A23F480331360784B1A
:1010EC001B68774A23F4802313601DE07B685B68E0
:1010FC00B3F5A02F0CD1724B1B68714A43F48023BB
:10110C0013606F4B1B686E4A43F4803313600BE023
:10111C006B4B1B686A4A23F480331360684B1B6863
:10112C00674A23F4802313607B685B68002B13D021
:10113C00FFF726FC386108E0FFF722FC02463B690A
:10114C00D31A642B01D90323FAE15D4B1B6803F41A
:10115C000033002BF0D014E0FFF712FC386108E0EC
:10116C00FFF70EFC02463B69D31A642B01D903230B
:10117C00E6E1534B1B6803F40033002BF0D100E085
:10118C0000BF7B681B6803F00203002B63D04C4B41
:10119C005B6803F00C03002B0BD0494B5B6803F02E
:1011AC000C03082B1CD1464B5B6803F48033002BDB
:1011BC0016D1434B1B6803F00203002B05D07B6850
:1011CC001B69012B01D00123BAE13D4B1B6823F0B5
:1011DC00F8027B685B69DB00394913430B603AE02A
:1011EC007B681B69002B20D0364B01221A60FFF75D
:1011FC00C7FB386108E0FFF7C3FB02463B69D31A13
:10120C00022B01D903239BE12D4B1B6803F0020336
:10121C00002BF0D02A4B1B6823F0F8027B685B692B
:10122C00DB00274913430B6015E0264B00221A60A4
:10123C00FFF7A6FB386108E0FFF7A2FB02463B690B
:10124C00D31A022B01D903237AE11D4B1B6803F03F
:10125C000203002BF0D17B681B6803F00803002B02
:10126C003AD07B689B69002B19D0174B01221A606E
:10127C00FFF786FB386108E0FFF782FB02463B690B
:10128C00D31A022B01D903235AE10D4B5B6A03F0ED
:10129C000203002BF0D0012000F09AFA1CE00A4B5C
:1012AC0000221A60FFF76CFB38610FE0FFF768FB58
:1012BC0002463B69D31A022B08D9032340E100BF35
:1012CC000010024000004242800442429E4B5B6A86
:1012DC0003F00203002BE9D17B681B6803F00403C5
:1012EC00002B00F0A6800023FB75974BDB6903F005
:1012FC008053002B0DD1944BDB69934A43F0805300
:10130C00D361914BDB6903F08053BB60BB68012355
:10131C00FB758E4B1B6803F48073002B18D18B4B21
:10132C001B688A4A43F480731360FFF729FB38610A
:10133C0008E0FFF725FB02463B69D31A642B01D961
:10134C000323FDE0814B1B6803F48073002BF0D06A
:10135C007B68DB68012B06D17B4B1B6A7A4A43F016
:10136C00010313622DE07B68DB68002B0CD1764BFC
:10137C001B6A754A23F001031362734B1B6A724A92
:10138C0023F0040313621CE07B68DB68052B0CD193
:10139C006D4B1B6A6C4A43F0040313626A4B1B6A65
:1013AC00694A43F0010313620BE0674B1B6A664A00
:1013BC0023F001031362644B1B6A634A23F004039A
:1013CC0013627B68DB68002B15D0FFF7D9FA386104
:1013DC000AE0FFF7D5FA02463B69D31A41F288328C
:1013EC00934201D90323ABE0574B1B6A03F0020372
:1013FC00002BEED014E0FFF7C3FA38610AE0FFF7D8
:10140C00BFFA02463B69D31A41F28832934201D9A2
:10141C00032395E04C4B1B6A03F00203002BEED127
:10142C00FB7D012B05D1484BDB69474A23F08053E8
:10143C00D3617B68DB69002B00F08180424B5B68D9
:10144C0003F00C03082B61D07B68DB69022B46D1BF
:10145C003F4B00221A60FFF793FA386108E0FFF760
:10146C008FFA02463B69D31A022B01D9032367E09A
:10147C00354B1B6803F00073002BF0D17B681B6AA3
:10148C00B3F5803F08D1304B5B6823F400327B68A6
:10149C009B682D4913434B602B4B5B6823F47412F0
:1014AC007B68196A7B685B6A0B43274913434B6063
:1014BC00274B01221A60FFF763FA386108E0FFF747
:1014CC005FFA02463B69D31A022B01D9032337E09A
:1014DC001D4B1B6803F00073002BF0D02FE01C4B4E
:1014EC0000221A60FFF74CFA386108E0FFF748FA5F
:1014FC0002463B69D31A022B01D9032320E0124B7D
:10150C001B6803F00073002BF0D118E07B68DB69DB
:10151C00012B01D1012313E00B4B5B68FB60FB68D3
:10152C0003F480327B681B6A9A4206D1FB6803F491
:10153C0070127B685B6A9A4201D0012300E00023A1
:10154C0018461837BD4680BD0010024000700040A0
:10155C006000424280B584B000AF786039607B682F
:10156C00002B01D10123D0E06A4B1B6803F0070369
:10157C003A689A4210D9674B1B6823F007026549F9
:10158C003B6813430B60634B1B6803F007033A681B
:10159C009A4201D00123B8E07B681B6803F0020378
:1015AC00002B20D07B681B6803F00403002B05D0B4
:1015BC00594B5B68584A43F4E06353607B681B6883
:1015CC0003F00803002B05D0534B5B68524A43F4DD
:1015DC0060535360504B5B6823F0F0027B689B6850
:1015EC004D4913434B607B681B6803F00103002BD0
:1015FC0040D07B685B68012B07D1474B1B6803F419
:10160C000033002B15D101237FE07B685B68022B34
:10161C0007D1414B1B6803F00073002B09D1012348
:10162C0073E03D4B1B6803F00203002B01D1012337
:10163C006BE0394B5B6823F003027B685B683649CF
:10164C0013434B60FFF79CF9F8600AE0FFF798F939
:10165C000246FB68D31A41F28832934201D9032324
:10166C0053E02D4B5B6803F00C027B685B689B00BE
:10167C009A42EBD1274B1B6803F007033A689A4256
:10168C0010D2244B1B6823F0070222493B681343FA
:10169C000B60204B1B6803F007033A689A4201D099
:1016AC00012332E07B681B6803F00403002B08D095
:1016BC00194B5B6823F4E0627B68DB6816491343C3
:1016CC004B607B681B6803F00803002B09D0124B9E
:1016DC005B6823F460527B681B69DB000E49134383
:1016EC004B6000F021F802460B4B5B681B0903F0C2
:1016FC000F030A49CB5C22FA03F3094A1360094B26
:10170C001B681846FFF7FAF8002318461037BD4639
:10171C0080BD00BF0020024000100240D02600080F
:10172C00000000200400002080B487B000AF00232C
:10173C00FB600023BB6000237B6100237B600023E4
:10174C003B611E4B5B68FB60FB6803F00C03042BD6
:10175C0002D0082B03D027E0194B3B6127E0FB6834
:10176C009B0C03F00F03174AD35C7B60FB6803F4FC
:10177C008033002B10D0114B5B685B0C03F0010322
:10178C00114AD35CBB607B680D4A02FB03F2BB6859
:10179C00B2FBF3F37B6104E07B680C4A02FB03F3BE
:1017AC007B617B693B6102E0054B3B6100BF3B69A0
:1017BC0018461C37BD4680BC704700BF0010024065
:1017CC0000127A00E0260008F026000800093D000F
:1017DC0080B485B000AF78600A4B1B680A4AA2FB44
:1017EC0003235B0A7A6802FB03F3FB6000BFFB6810
:1017FC005A1EFA60002BF9D100BF00BF1437BD464A
:10180C0080BC704700000020D34D621080B582B0C0
:10181C0000AF78607B68002B01D1012376E07B68F8
:10182C005B6A002B08D17B685B68B3F5827F09D0BB
:10183C007B680022DA6105E07B6800221A617B6814
:10184C0000225A617B6800229A627B6893F85130BF
:10185C00DBB2002B06D17B68002283F8502078681D
:10186C00FEF752FF7B68022283F851207B681B68CD
:10187C001A687B681B6822F040021A607B685B6800
:10188C0003F482727B689B6803F404431A437B68FD
:10189C00DB6803F400631A437B681B6903F00203E3
:1018AC001A437B685B6903F001031A437B689B69ED
:1018BC0003F400731A437B68DB6903F038031A43A3
:1018CC007B681B6A03F0800342EA03017B689B6A16
:1018DC0003F400527B681B680A431A607B689B699F
:1018EC001A0C7B681B6802F004025A607B681B6848
:1018FC00DA697B681B6822F40062DA617B6800227B
:10190C005A657B68012283F851200023184608375A
:10191C00BD4680BD80B588B000AFF860B9603B6053
:10192C001346FB80FFF72CF8F861FB887B83FB6880
:10193C0093F85130DBB2012B01D002232AE1BB68B2
:10194C00002B02D0FB88002B01D1012322E1FB6884
:10195C0093F85030012B01D102231BE1FB680122CB
:10196C0083F85020FB68032283F85120FB68002287
:10197C005A65FB68BA681A63FB68FA889A86FB6832
:10198C00FA88DA86FB6800229A63FB6800229A8741
:10199C00FB680022DA87FB6800225A64FB6800228D
:1019AC001A64FB689B68B3F5004F0FD1FB681B688A
:1019BC001A68FB681B6822F040021A60FB681B68FF
:1019CC001A68FB681B6842F480421A60FB681B684B
:1019DC001B6803F04003402B07D0FB681B681A6898
:1019EC00FB681B6842F040021A60FB68DB68B3F5C9
:1019FC00006F52D1FB685B68002B02D07B8B012BF4
:101A0C0045D1FB681B6B1A88FB681B68DA60FB68A6
:101A1C001B6B9A1CFB681A63FB68DB8E9BB2013B49
:101A2C009AB2FB68DA8632E0FB681B689B6803F0AD
:101A3C000203022B12D1FB681B6B1A88FB681B6814
:101A4C00DA60FB681B6B9A1CFB681A63FB68DB8E05
:101A5C009BB2013B9AB2FB68DA8618E0FEF790FF66
:101A6C000246FB69D31A3A689A4203D83B68B3F131
:101A7C00FF3F02D13B68002B09D1FB68012283F8A0
:101A8C005120FB68002283F85020032382E0FB687E
:101A9C00DB8E9BB2002BC7D153E0FB685B68002B3D
:101AAC0002D07B8B012B47D1FB681A6BFB681B6840
:101ABC000C3312781A70FB681B6B5A1CFB681A6388
:101ACC00FB68DB8E9BB2013B9AB2FB68DA8633E093
:101ADC00FB681B689B6803F00203022B13D1FB68A5
:101AEC001A6BFB681B680C3312781A70FB681B6B43
:101AFC005A1CFB681A63FB68DB8E9BB2013B9AB2E3
:101B0C00FB68DA8618E0FEF73BFF0246FB69D31A46
:101B1C003A689A4203D83B68B3F1FF3F02D13B6865
:101B2C00002B09D1FB68012283F85120FB680022AD
:101B3C0083F8502003232DE0FB68DB8E9BB2002B37
:101B4C00C6D1FA693968F86800F0B4F90346002B7D
:101B5C0002D0FB6820225A65FB689B68002B0AD1D7
:101B6C0000237B61FB681B68DB687B61FB681B687F
:101B7C009B687B617B69FB68012283F85120FB68C1
:101B8C00002283F85020FB685B6D002B01D00123F1
:101B9C0000E0002318462037BD4680BD80B588B0D4
:101BAC0000AF78607B681B685B68FB617B681B68B7
:101BBC009B68BB61BB699B0903F00103002B0FD130
:101BCC00BB6903F00103002B0AD0FB699B0903F0EE
:101BDC000103002B04D07B681B6C78689847BEE02F
:101BEC00BB695B0803F00103002B0AD0FB69DB091E
:101BFC0003F00103002B04D07B685B6C786898477A
:101C0C00ADE0BB695B0903F00103002B06D1BB6996
:101C1C009B0903F00103002B00F0A180FB695B0919
:101C2C0003F00103002B00F09A80BB699B0903F0C1
:101C3C000103002B23D07B6893F85130DBB2032BCC
:101C4C0011D07B685B6D43F004027B685A650023FE
:101C5C007B617B681B68DB687B617B681B689B68AE
:101C6C007B617B690BE000233B617B681B68DB6855
:101C7C003B617B681B689B683B613B696FE0BB69A0
:101C8C005B0903F00103002B14D07B685B6D43F000
:101C9C0001027B685A650023FB607B681B689B68AC
:101CAC00FB607B681B681A687B681B6822F040022B
:101CBC001A60FB687B685B6D002B4FD07B681B68E0
:101CCC005A687B681B6822F0E0025A607B6801222C
:101CDC0083F85120FB6903F00203002B04D1FB694C
:101CEC0003F00103002B34D07B681B685A687B68B7
:101CFC001B6822F003025A607B68DB6C002B11D04E
:101D0C007B68DB6C174A5A637B68DB6C1846FEF702
:101D1C0073FF0346002B05D07B685B6D43F04002DC
:101D2C007B685A657B689B6C002B16D07B689B6C20
:101D3C000C4A5A637B689B6C1846FEF75DFF0346A2
:101D4C00002B0AD07B685B6D43F040027B685A65C0
:101D5C0003E0786800F008F800E000BF00BF20370F
:101D6C00BD4680BD871D000880B483B000AF78608D
:101D7C0000BF0C37BD4680BC704780B584B000AF47
:101D8C0078607B685B6AFB60FB680022DA87FB6823
:101D9C000022DA86F868FFF7E7FF00BF1037BD4670
:101DAC0080BD000080B588B000AFF860B9603B60C2
:101DBC001346FB71FEF7E4FD0246BB6A9B1A3A68B8
:101DCC001344FB61FEF7DCFDB861394B1B685B010A
:101DDC001B0DFA6902FB03F37B6154E03B68B3F122
:101DEC00FF3F50D0FEF7CCFD0246BB69D31AFA690F
:101DFC009A4202D9FB69002B3DD1FB681B685A68DB
:101E0C00FB681B6822F0E0025A60FB685B68B3F564
:101E1C00827F11D1FB689B68B3F5004F04D0FB683F
:101E2C009B68B3F5806F07D1FB681B681A68FB6869
:101E3C001B6822F040021A60FB689B6AB3F5005FD6
:101E4C000FD1FB681B681A68FB681B6822F40052F0
:101E5C001A60FB681B681A68FB681B6842F4005226
:101E6C001A60FB68012283F85120FB68002283F87A
:101E7C005020032317E07B69002B01D10023FB6169
:101E8C007B69013B7B61FB681B689A68BB681340EC
:101E9C00BA689A420CBF01230023DBB21A46FB79C5
:101EAC009A429BD1002318462037BD4680BD00BF07
:101EBC000000002080B586B002AFF860B9607A608F
:101ECC007B680093BB6801220221F868FFF76AFF68
:101EDC000346002B07D0FB685B6D43F02002FB68C8
:101EEC005A65032313E07B680093BB6800228021B2
:101EFC00F868FFF757FF0346002B07D0FB685B6DB4
:101F0C0043F02002FB685A65032300E000231846C7
:101F1C001037BD4680BD80B582B000AF78607B685D
:101F2C00002B01D1012341E07B6893F83D30DBB2FB
:101F3C00002B06D17B68002283F83C207868FEF7E2
:101F4C0035FC7B68022283F83D207B681A687B682D
:101F5C0004331946104600F009FA7B68012283F815
:101F6C0046207B68012283F83E207B68012283F89F
:101F7C003F207B68012283F840207B68012283F894
:101F8C0041207B68012283F842207B68012283F880
:101F9C0043207B68012283F844207B68012283F86C
:101FAC0045207B68012283F83D2000231846083722
:101FBC00BD4680BD80B584B000AF78607B681B687F
:101FCC00DB68FB607B681B681B69BB60BB6803F04C
:101FDC000203002B20D0FB6803F00203002B1BD064
:101FEC007B681B686FF002021A617B6801221A770A
:101FFC007B681B689B6903F00303002B03D0786894
:10200C0000F098F905E0786800F08BF9786800F03A
:10201C009AF97B6800221A77BB6803F00403002B43
:10202C0020D0FB6803F00403002B1BD07B681B68DB
:10203C006FF004021A617B6802221A777B681B68B6
:10204C009B6903F44073002B03D0786800F072F99D
:10205C0005E0786800F065F9786800F074F97B6841
:10206C0000221A77BB6803F00803002B20D0FB6812
:10207C0003F00803002B1BD07B681B686FF0080271
:10208C001A617B6804221A777B681B68DB6903F092
:10209C000303002B03D0786800F04CF905E0786856
:1020AC0000F03FF9786800F04EF97B6800221A774F
:1020BC00BB6803F01003002B20D0FB6803F0100367
:1020CC00002B1BD07B681B686FF010021A617B68B9
:1020DC0008221A777B681B68DB6903F44073002BBA
:1020EC0003D0786800F026F905E0786800F019F95B
:1020FC00786800F028F97B6800221A77BB6803F037
:10210C000103002B0CD0FB6803F00103002B07D05C
:10211C007B681B686FF001021A617868FEF7A0FA01
:10212C00BB6803F08003002B0CD0FB6803F080032A
:10213C00002B07D07B681B686FF080021A617868EF
:10214C0000F07FFABB6803F04003002B0CD0FB6857
:10215C0003F04003002B07D07B681B686FF0400234
:10216C001A61786800F0F8F8BB6803F02003002BC4
:10217C000CD0FB6803F02003002B07D07B681B6896
:10218C006FF020021A61786800F052FA00BF103725
:10219C00BD4680BD80B584B000AF78603960002347
:1021AC00FB737B6893F83C30012B01D10223B4E024
:1021BC007B68012283F83C207B68022283F83D2057
:1021CC007B681B689B68BB60BB6823F07703BB60B4
:1021DC00BB6823F47F43BB607B681B68BA689A605A
:1021EC003B681B68B3F5005F3ED0B3F5005F00F2AF
:1021FC008780B3F5805F00F08680B3F5805F7FD871
:10220C00702B1AD0702B7BD8602B50D0602B77D8CA
:10221C00502B3CD0502B73D8402B58D0402B6FD820
:10222C00302B64D0302B6BD8202B60D0202B67D870
:10223C00002B5CD0102B5AD062E07B6818683B688E
:10224C0099683B685A683B68DB6800F074F97B68F6
:10225C001B689B68BB60BB6843F07703BB607B6803
:10226C001B68BA689A604FE07B6818683B6899688D
:10227C003B685A683B68DB6800F05DF97B681B685B
:10228C009A687B681B6842F480429A603CE07B68E9
:10229C0018683B6859683B68DB681A4600F0D4F84C
:1022AC007B681B685021184600F02BF92CE07B68EA
:1022BC0018683B6859683B68DB681A4600F0F2F80E
:1022CC007B681B686021184600F01BF91CE07B68DA
:1022DC0018683B6859683B68DB681A4600F0B4F82C
:1022EC007B681B684021184600F00BF90CE07B68FA
:1022FC001A683B681B681946104600F002F903E0A7
:10230C000123FB7300E000BF7B68012283F83D20B2
:10231C007B68002283F83C20FB7B18461037BD46B7
:10232C0080BD80B483B000AF786000BF0C37BD4671
:10233C0080BC704780B483B000AF786000BF0C37AE
:10234C00BD4680BC704780B483B000AF786000BFDE
:10235C000C37BD4680BC704780B483B000AF78604A
:10236C0000BF0C37BD4680BC7047000080B485B000
:10237C0000AF786039607B681B68FB607B682F4A14
:10238C0093420BD07B68B3F1804F07D07B682C4A0B
:10239C00934203D07B682B4A934208D1FB6823F00D
:1023AC007003FB603B685B68FA681343FB607B68F7
:1023BC00224A93420BD07B68B3F1804F07D07B68E5
:1023CC001F4A934203D07B681E4A934208D1FB6894
:1023DC0023F44073FB603B68DB68FA681343FB60D3
:1023EC00FB6823F080023B685B691343FB607B68EE
:1023FC00FA681A603B689A687B68DA623B681A680C
:10240C007B689A627B680D4A934203D13B681A69D8
:10241C007B681A637B6801225A617B681B6903F035
:10242C000103002B05D07B681B6923F001027B683C
:10243C001A6100BF1437BD4680BC7047002C0140A8
:10244C00000400400008004080B487B000AFF86082
:10245C00B9607A60FB681B6A7B61FB681B6A23F0BE
:10246C000102FB681A62FB689B693B613B6923F0C4
:10247C00F0033B617B681B013A6913433B617B6949
:10248C0023F00A037B617A69BB6813437B61FB68A9
:10249C003A699A61FB687A691A6200BF1C37BD46BB
:1024AC0080BC704780B487B000AFF860B9607A60C8
:1024BC00FB681B6A7B61FB681B6A23F01002FB68DC
:1024CC001A62FB689B693B613B6923F470433B6177
:1024DC007B681B033A6913433B617B6923F0A003C0
:1024EC007B61BB681B017A6913437B61FB683A69AA
:1024FC009A61FB687A691A6200BF1C37BD4680BCC2
:10250C00704780B485B000AF786039607B689B6899
:10251C00FB60FB6823F07003FB603A68FB681343B5
:10252C0043F00703FB607B68FA689A6000BF1437BE
:10253C00BD4680BC704780B487B000AFF860B9600E
:10254C007A603B60FB689B687B617B6923F47F430B
:10255C007B613B681A027B681A43BB6813437A6938
:10256C0013437B61FB687A699A6000BF1C37BD46D8
:10257C0080BC704780B485B000AF786039607B68F0
:10258C0093F83C30012B01D1022346E07B680122F9
:10259C0083F83C207B68022283F83D207B681B6813
:1025AC005B68FB607B681B689B68BB60FB6823F007
:1025BC007003FB603B681B68FA681343FB607B6825
:1025CC001B68FA685A607B681B68164A93420ED0E7
:1025DC007B681B68B3F1804F09D07B681B68124A7B
:1025EC00934204D07B681B68104A93420CD1BB68A1
:1025FC0023F08003BB603B685B68BA681343BB6025
:10260C007B681B68BA689A607B68012283F83D205E
:10261C007B68002283F83C20002318461437BD4603
:10262C0080BC7047002C01400004004000080040B2
:10263C0080B483B000AF786000BF0C37BD4680BC5F
:10264C00704780B483B000AF786000BF0C37BD46D4
:10265C0080BC704770B500260C4D0D4C641BA4104B
:10266C00A64209D100F022F800260A4D0A4C641B40
:10267C00A410A64205D170BD55F8043B984701360D
:10268C00EEE755F8043B98470136F2E7F4260008CC
:10269C00F4260008F4260008F82600080346024435
:1026AC00934200D1704703F8011BF9E7F8B500BF5E
:1026BC00F8BC08BC9E467047F8B500BFF8BC08BC17
:0426CC009E4670476F
:1026D00000000000000000000102030406070809D2
:1026E00002030405060708090A0B0C0D0E0F101053
:0426F00001020000E3
:0426F40031010008A8
:0426F8000D010008C8
:0C26FC0000127A00100000000100000035
:040000050800089156
:00000001FF
